{
  "_format": "hh-sol-artifact-1",
  "contractName": "TicketChain",
  "sourceName": "contracts/TicketChain.sol",
  "abi": [
    {
      "inputs": [],
      "stateMutability": "nonpayable",
      "type": "constructor"
    },
    {
      "inputs": [
        {
          "internalType": "uint256",
          "name": "_movieId",
          "type": "uint256"
        },
        {
          "internalType": "uint256",
          "name": "_seatNumber",
          "type": "uint256"
        },
        {
          "internalType": "uint256",
          "name": "_numTickets",
          "type": "uint256"
        }
      ],
      "name": "buyTicket",
      "outputs": [],
      "stateMutability": "nonpayable",
      "type": "function"
    },
    {
      "inputs": [
        {
          "internalType": "string",
          "name": "_title",
          "type": "string"
        },
        {
          "internalType": "uint256",
          "name": "_totalSeats",
          "type": "uint256"
        },
        {
          "internalType": "uint256",
          "name": "_totalTickets",
          "type": "uint256"
        }
      ],
      "name": "createMovie",
      "outputs": [],
      "stateMutability": "nonpayable",
      "type": "function"
    },
    {
      "inputs": [
        {
          "internalType": "uint256",
          "name": "_movieId",
          "type": "uint256"
        }
      ],
      "name": "getMovieDetails",
      "outputs": [
        {
          "internalType": "string",
          "name": "title",
          "type": "string"
        },
        {
          "internalType": "uint256",
          "name": "totalSeats",
          "type": "uint256"
        },
        {
          "internalType": "uint256",
          "name": "totalTickets",
          "type": "uint256"
        },
        {
          "internalType": "uint256",
          "name": "ticketsSold",
          "type": "uint256"
        }
      ],
      "stateMutability": "view",
      "type": "function"
    },
    {
      "inputs": [
        {
          "internalType": "uint256",
          "name": "_ticketId",
          "type": "uint256"
        }
      ],
      "name": "getTicketDetails",
      "outputs": [
        {
          "internalType": "string",
          "name": "movieTitle",
          "type": "string"
        },
        {
          "internalType": "uint256",
          "name": "movieId",
          "type": "uint256"
        },
        {
          "internalType": "uint256",
          "name": "seatNumber",
          "type": "uint256"
        },
        {
          "internalType": "address",
          "name": "user",
          "type": "address"
        }
      ],
      "stateMutability": "view",
      "type": "function"
    },
    {
      "inputs": [
        {
          "internalType": "address",
          "name": "_user",
          "type": "address"
        }
      ],
      "name": "getUserTickets",
      "outputs": [
        {
          "internalType": "uint256[]",
          "name": "",
          "type": "uint256[]"
        }
      ],
      "stateMutability": "view",
      "type": "function"
    },
    {
      "inputs": [],
      "name": "movieCount",
      "outputs": [
        {
          "internalType": "uint256",
          "name": "",
          "type": "uint256"
        }
      ],
      "stateMutability": "view",
      "type": "function"
    },
    {
      "inputs": [],
      "name": "owner",
      "outputs": [
        {
          "internalType": "address",
          "name": "",
          "type": "address"
        }
      ],
      "stateMutability": "view",
      "type": "function"
    },
    {
      "inputs": [],
      "name": "registerUser",
      "outputs": [],
      "stateMutability": "nonpayable",
      "type": "function"
    },
    {
      "inputs": [
        {
          "internalType": "address",
          "name": "",
          "type": "address"
        }
      ],
      "name": "registeredUsers",
      "outputs": [
        {
          "internalType": "bool",
          "name": "",
          "type": "bool"
        }
      ],
      "stateMutability": "view",
      "type": "function"
    },
    {
      "inputs": [],
      "name": "ticketsCount",
      "outputs": [
        {
          "internalType": "uint256",
          "name": "",
          "type": "uint256"
        }
      ],
      "stateMutability": "view",
      "type": "function"
    },
    {
      "inputs": [
        {
          "internalType": "uint256",
          "name": "_ticketId",
          "type": "uint256"
        },
        {
          "internalType": "address",
          "name": "_to",
          "type": "address"
        }
      ],
      "name": "transferTicket",
      "outputs": [],
      "stateMutability": "nonpayable",
      "type": "function"
    }
  ],
  "bytecode": "0x608060405234801561001057600080fd5b50336000806101000a81548173ffffffffffffffffffffffffffffffffffffffff021916908373ffffffffffffffffffffffffffffffffffffffff1602179055506119bd806100606000396000f3fe608060405234801561001057600080fd5b50600436106100a95760003560e01c80634d3820eb116100715780634d3820eb1461017b5780635c7b14c114610185578063679ebf1a146101b85780638da5cb5b146101d4578063a1daf326146101f2578063c4c6710d14610210576100a9565b80630484a22f146100ae5780630e50cee5146100de5780631644e7af1461010e57806321da94e21461012c57806324c1416014610148575b600080fd5b6100c860048036038101906100c39190611064565b61022c565b6040516100d59190611525565b60405180910390f35b6100f860048036038101906100f39190611064565b6102c3565b6040516101059190611547565b60405180910390f35b6101166102e3565b60405161012391906116fa565b60405180910390f35b6101466004803603810190610141919061108d565b6102e9565b005b610162600480360381019061015d91906110f9565b610454565b6040516101729493929190611562565b60405180910390f35b61018361055c565b005b61019f600480360381019061019a91906110f9565b610643565b6040516101af94939291906115ae565b60405180910390f35b6101d260048036038101906101cd9190611122565b61070f565b005b6101dc610c23565b6040516101e9919061150a565b60405180910390f35b6101fa610c47565b60405161020791906116fa565b60405180910390f35b61022a6004803603810190610225919061115e565b610c4d565b005b6060600560008373ffffffffffffffffffffffffffffffffffffffff1673ffffffffffffffffffffffffffffffffffffffff1681526020019081526020016000208054806020026020016040519081016040528092919081815260200182805480156102b757602002820191906000526020600020905b8154815260200190600101908083116102a3575b50505050509050919050565b60046020528060005260406000206000915054906101000a900460ff1681565b60025481565b60008054906101000a900473ffffffffffffffffffffffffffffffffffffffff1673ffffffffffffffffffffffffffffffffffffffff163373ffffffffffffffffffffffffffffffffffffffff1614610377576040517f08c379a000000000000000000000000000000000000000000000000000000000815260040161036e906115fa565b60405180910390fd5b60006001549050604051806080016040528086868080601f016020809104026020016040519081016040528093929190818152602001838380828437600081840152601f19601f8201169050808301925050505050505081526020018481526020018381526020016000815250600360008381526020019081526020016000206000820151816000019080519060200190610413929190610f4d565b5060208201518160010155604082015181600201556060820151816003015590505060016000815480929190610448906118a1565b91905055505050505050565b606060008060008060066000878152602001908152602001600020905060006003600083600001548152602001908152602001600020905080600001826000015483600101548460020160019054906101000a900473ffffffffffffffffffffffffffffffffffffffff168380546104cb9061186f565b80601f01602080910402602001604051908101604052809291908181526020018280546104f79061186f565b80156105445780601f1061051957610100808354040283529160200191610544565b820191906000526020600020905b81548152906001019060200180831161052757829003601f168201915b50505050509350955095509550955050509193509193565b600460003373ffffffffffffffffffffffffffffffffffffffff1673ffffffffffffffffffffffffffffffffffffffff16815260200190815260200160002060009054906101000a900460ff16156105e9576040517f08c379a00000000000000000000000000000000000000000000000000000000081526004016105e0906116da565b60405180910390fd5b6001600460003373ffffffffffffffffffffffffffffffffffffffff1673ffffffffffffffffffffffffffffffffffffffff16815260200190815260200160002060006101000a81548160ff021916908315150217905550565b60606000806000806003600087815260200190815260200160002090508060000181600101548260020154836003015483805461067f9061186f565b80601f01602080910402602001604051908101604052809291908181526020018280546106ab9061186f565b80156106f85780601f106106cd576101008083540402835291602001916106f8565b820191906000526020600020905b8154815290600101906020018083116106db57829003601f168201915b505050505093509450945094509450509193509193565b600460003373ffffffffffffffffffffffffffffffffffffffff1673ffffffffffffffffffffffffffffffffffffffff16815260200190815260200160002060009054906101000a900460ff1661079b576040517f08c379a00000000000000000000000000000000000000000000000000000000081526004016107929061167a565b60405180910390fd5b600073ffffffffffffffffffffffffffffffffffffffff168173ffffffffffffffffffffffffffffffffffffffff16141561080b576040517f08c379a00000000000000000000000000000000000000000000000000000000081526004016108029061161a565b60405180910390fd5b6000600560003373ffffffffffffffffffffffffffffffffffffffff1673ffffffffffffffffffffffffffffffffffffffff1681526020019081526020016000208054905011610890576040517f08c379a0000000000000000000000000000000000000000000000000000000008152600401610887906116ba565b60405180910390fd5b6000805b600560003373ffffffffffffffffffffffffffffffffffffffff1673ffffffffffffffffffffffffffffffffffffffff168152602001908152602001600020805490508110156109835783600560003373ffffffffffffffffffffffffffffffffffffffff1673ffffffffffffffffffffffffffffffffffffffff1681526020019081526020016000208281548110610956577f4e487b7100000000000000000000000000000000000000000000000000000000600052603260045260246000fd5b906000526020600020015414156109705760019150610983565b808061097b906118a1565b915050610894565b50806109c4576040517f08c379a00000000000000000000000000000000000000000000000000000000081526004016109bb9061165a565b60405180910390fd5b6000600560003373ffffffffffffffffffffffffffffffffffffffff1673ffffffffffffffffffffffffffffffffffffffff168152602001908152602001600020905060005b8180549050811015610b615784828281548110610a50577f4e487b7100000000000000000000000000000000000000000000000000000000600052603260045260246000fd5b90600052602060002001541415610b4e578160018380549050610a7391906117c0565b81548110610aaa577f4e487b7100000000000000000000000000000000000000000000000000000000600052603260045260246000fd5b9060005260206000200154828281548110610aee577f4e487b7100000000000000000000000000000000000000000000000000000000600052603260045260246000fd5b906000526020600020018190555081805480610b33577f4e487b7100000000000000000000000000000000000000000000000000000000600052603160045260246000fd5b60019003818190600052602060002001600090559055610b61565b8080610b59906118a1565b915050610a0a565b50600560008473ffffffffffffffffffffffffffffffffffffffff1673ffffffffffffffffffffffffffffffffffffffff168152602001908152602001600020849080600181540180825580915050600190039060005260206000200160009091909190915055826006600086815260200190815260200160002060020160016101000a81548173ffffffffffffffffffffffffffffffffffffffff021916908373ffffffffffffffffffffffffffffffffffffffff16021790555050505050565b60008054906101000a900473ffffffffffffffffffffffffffffffffffffffff1681565b60015481565b600460003373ffffffffffffffffffffffffffffffffffffffff1673ffffffffffffffffffffffffffffffffffffffff16815260200190815260200160002060009054906101000a900460ff16610cd9576040517f08c379a0000000000000000000000000000000000000000000000000000000008152600401610cd09061167a565b60405180910390fd5b6003600084815260200190815260200160002060010154821115610d32576040517f08c379a0000000000000000000000000000000000000000000000000000000008152600401610d299061169a565b60405180910390fd5b6003600084815260200190815260200160002060020154816003600086815260200190815260200160002060030154610d6b919061176a565b1115610dac576040517f08c379a0000000000000000000000000000000000000000000000000000000008152600401610da39061163a565b60405180910390fd5b60005b81811015610f47576000600254905060026000815480929190610dd1906118a1565b919050555060405180608001604052808681526020018581526020016001151581526020013373ffffffffffffffffffffffffffffffffffffffff1681525060066000838152602001908152602001600020600082015181600001556020820151816001015560408201518160020160006101000a81548160ff02191690831515021790555060608201518160020160016101000a81548173ffffffffffffffffffffffffffffffffffffffff021916908373ffffffffffffffffffffffffffffffffffffffff160217905550905050600560003373ffffffffffffffffffffffffffffffffffffffff1673ffffffffffffffffffffffffffffffffffffffff168152602001908152602001600020819080600181540180825580915050600190039060005260206000200160009091909190915055600360008681526020019081526020016000206003016000815480929190610f2e906118a1565b9190505550508080610f3f906118a1565b915050610daf565b50505050565b828054610f599061186f565b90600052602060002090601f016020900481019282610f7b5760008555610fc2565b82601f10610f9457805160ff1916838001178555610fc2565b82800160010185558215610fc2579182015b82811115610fc1578251825591602001919060010190610fa6565b5b509050610fcf9190610fd3565b5090565b5b80821115610fec576000816000905550600101610fd4565b5090565b600081359050610fff81611959565b92915050565b60008083601f84011261101757600080fd5b8235905067ffffffffffffffff81111561103057600080fd5b60208301915083600182028301111561104857600080fd5b9250929050565b60008135905061105e81611970565b92915050565b60006020828403121561107657600080fd5b600061108484828501610ff0565b91505092915050565b600080600080606085870312156110a357600080fd5b600085013567ffffffffffffffff8111156110bd57600080fd5b6110c987828801611005565b945094505060206110dc8782880161104f565b92505060406110ed8782880161104f565b91505092959194509250565b60006020828403121561110b57600080fd5b60006111198482850161104f565b91505092915050565b6000806040838503121561113557600080fd5b60006111438582860161104f565b925050602061115485828601610ff0565b9150509250929050565b60008060006060848603121561117357600080fd5b60006111818682870161104f565b93505060206111928682870161104f565b92505060406111a38682870161104f565b9150509250925092565b60006111b983836114ec565b60208301905092915050565b6111ce816117f4565b82525050565b60006111df82611725565b6111e98185611748565b93506111f483611715565b8060005b8381101561122557815161120c88826111ad565b97506112178361173b565b9250506001810190506111f8565b5085935050505092915050565b61123b81611806565b82525050565b600061124c82611730565b6112568185611759565b935061126681856020860161183c565b61126f81611948565b840191505092915050565b6000611287602583611759565b91507f4f6e6c7920746865206f776e65722063616e2063616c6c20746869732066756e60008301527f6374696f6e0000000000000000000000000000000000000000000000000000006020830152604082019050919050565b60006112ed600f83611759565b91507f496e76616c6964206164647265737300000000000000000000000000000000006000830152602082019050919050565b600061132d601c83611759565b91507f4e6f7420656e6f756768207469636b65747320617661696c61626c65000000006000830152602082019050919050565b600061136d602483611759565b91507f5469636b657420646f6573206e6f742062656c6f6e6720746f2074686520736560008301527f6e646572000000000000000000000000000000000000000000000000000000006020830152604082019050919050565b60006113d3601d83611759565b91507f596f7520617265206e6f742061207265676973746572656420757365720000006000830152602082019050919050565b6000611413601383611759565b91507f496e76616c69642073656174206e756d626572000000000000000000000000006000830152602082019050919050565b6000611453602183611759565b91507f4e6f207469636b65747320617661696c61626c6520666f72207472616e73666560008301527f72000000000000000000000000000000000000000000000000000000000000006020830152604082019050919050565b60006114b9601783611759565b91507f5573657220616c726561647920726567697374657265640000000000000000006000830152602082019050919050565b6114f581611832565b82525050565b61150481611832565b82525050565b600060208201905061151f60008301846111c5565b92915050565b6000602082019050818103600083015261153f81846111d4565b905092915050565b600060208201905061155c6000830184611232565b92915050565b6000608082019050818103600083015261157c8187611241565b905061158b60208301866114fb565b61159860408301856114fb565b6115a560608301846111c5565b95945050505050565b600060808201905081810360008301526115c88187611241565b90506115d760208301866114fb565b6115e460408301856114fb565b6115f160608301846114fb565b95945050505050565b600060208201905081810360008301526116138161127a565b9050919050565b60006020820190508181036000830152611633816112e0565b9050919050565b6000602082019050818103600083015261165381611320565b9050919050565b6000602082019050818103600083015261167381611360565b9050919050565b60006020820190508181036000830152611693816113c6565b9050919050565b600060208201905081810360008301526116b381611406565b9050919050565b600060208201905081810360008301526116d381611446565b9050919050565b600060208201905081810360008301526116f3816114ac565b9050919050565b600060208201905061170f60008301846114fb565b92915050565b6000819050602082019050919050565b600081519050919050565b600081519050919050565b6000602082019050919050565b600082825260208201905092915050565b600082825260208201905092915050565b600061177582611832565b915061178083611832565b9250827fffffffffffffffffffffffffffffffffffffffffffffffffffffffffffffffff038211156117b5576117b46118ea565b5b828201905092915050565b60006117cb82611832565b91506117d683611832565b9250828210156117e9576117e86118ea565b5b828203905092915050565b60006117ff82611812565b9050919050565b60008115159050919050565b600073ffffffffffffffffffffffffffffffffffffffff82169050919050565b6000819050919050565b60005b8381101561185a57808201518184015260208101905061183f565b83811115611869576000848401525b50505050565b6000600282049050600182168061188757607f821691505b6020821081141561189b5761189a611919565b5b50919050565b60006118ac82611832565b91507fffffffffffffffffffffffffffffffffffffffffffffffffffffffffffffffff8214156118df576118de6118ea565b5b600182019050919050565b7f4e487b7100000000000000000000000000000000000000000000000000000000600052601160045260246000fd5b7f4e487b7100000000000000000000000000000000000000000000000000000000600052602260045260246000fd5b6000601f19601f8301169050919050565b611962816117f4565b811461196d57600080fd5b50565b61197981611832565b811461198457600080fd5b5056fea26469706673582212204a159e91f9041521a65a54f2f91dca1a69dad2607edaec7ed77f4a91865d0b4064736f6c63430008000033",
  "linkReferences": {},
  "deployedLinkReferences": {}
}